:100000000C946A000C9492000C9492000C94920050
:100010000C9492000C9492000C9492000C94920018
:100020000C9492000C9492000C9492000C94920008
:100030000C9492000C9492000C9492000C949200F8
:100040000C94CA040C9492000C94FC030C94D603F8
:100050000C9492000C9492000C9492000C949200D8
:100060000C9454050C949200110B140B170B1A0BE3
:100070001D0B200B230B1F1C1F1E1F1E1F1F1E1FCF
:100080001E1F00000008000201000003040700001A
:1000900000000000000000000000250028002B00E8
:1000A00000000000240027002A00040404040404C3
:1000B0000404020202020202030303030303010217
:1000C00004081020408001020408102001020408E6
:1000D0001020BB0B11241FBECFEFD8E0DEBFCDBF79
:1000E00023E0AAE8B1E001C01D92AC30B207E1F70D
:1000F00011E0A0E0B1E0E8EAFDE102C005900D9258
:10010000AA38B107D9F710E0CAE6D0E004C02197B9
:10011000FE010E94C00CC936D107C9F70E9497089A
:100120000C94D20E0C9400000E94BD0E0F931F93EE
:10013000CF93DF93EC0188819981009729F02A8180
:100140003B812617370788F48B016F5F7F4F0E9432
:10015000F30D009761F0998388831B830A832C81B8
:100160003D81232B11F4FC01108281E001C080E06D
:10017000DF91CF911F910F910895CF93DF93EC0101
:1001800088819981009711F00E945B0D1982188275
:100190001D821C821B821A82DF91CF910895EF92FB
:1001A000FF920F931F93CF93DF93EC01FB018481A8
:1001B0009581E080F1800C811D81E114F104B1F0A2
:1001C0000097B9F0080F191FB801CE010E949600E0
:1001D000882361F0288139818C819D81B701820F4C
:1001E000931F0E94CB0E1D830C8303C0CE010E947F
:1001F000BD00CE01DF91CF911F910F91FF90EF9045
:100200000895FC01808191810C945B0DCF92DF9267
:10021000EF92FF920F931F93CF93DF93CDB7DEB78B
:1002200029970FB6F894DEBF0FBECDBF8C01862F85
:10023000F80111821082138212821582148250E01A
:100240009E012F5F3F4F6901B90190E00E94120C9F
:10025000F60101900020E9F731977F01EC18FD08C5
:10026000B701C8010E949600811104C0C8010E9414
:10027000BD0008C0F801F582E482B6018081918159
:100280000E94CB0E29960FB6F894DEBF0FBECDBFED
:10029000DF91CF911F910F91FF90EF90DF90CF9062
:1002A0000895EF92FF920F931F93CF93DF93EC018A
:1002B000198218821B821A821D821C8261157105A7
:1002C00021F18B01FB0101900020E9F731977F01BB
:1002D000E61AF70AB7010E949600811109C0CE0103
:1002E000DF91CF911F910F91FF90EF900C94BD0083
:1002F000FD82EC82B80188819981DF91CF911F91B5
:100300000F91FF90EF900C94CB0EDF91CF911F9146
:100310000F91FF90EF900895CF92DF92EF92FF92AE
:100320000F931F93CF93DF936C017A018B01C0E091
:10033000D0E0CE15DF0589F0D8016D918D01D60191
:10034000ED91FC910190F081E02DC6010995892B7A
:1003500011F47E0102C02196ECCFC701DF91CF914D
:100360001F910F91FF90EF90DF90CF900895FC01C7
:10037000538D448D252F30E0842F90E0821B930B0A
:10038000541710F0CF96089501970895FC01918DB0
:10039000828D981761F0828DDF01A80FB11D5D96E7
:1003A0008C91928D9F5F9F73928F90E008958FEF55
:1003B0009FEF0895FC01918D828D981731F0828D09
:1003C000E80FF11D858D90E008958FEF9FEF089560
:1003D000FC01918D228D892F90E0805C9F4F821BC4
:1003E00091098F739927089587E492E00E94E801AC
:1003F00021E0892B09F420E0822F0895FC01848DEF
:10040000DF01A80FB11DA35ABF4F2C91848D90E03E
:1004100001968F739927848FA689B7892C93A08919
:10042000B1898C9180648C93938D848D981306C0D0
:100430000288F389E02D80818F7D80830895EF927B
:10044000FF920F931F93CF93DF93EC0181E0888F8E
:100450009B8D8C8D981305C0E889F989808185FD75
:1004600024C0F62E0B8D10E00F5F1F4F0F73112766
:10047000E02E8C8DE8120CC00FB607FCFACFE8898D
:10048000F989808185FFF5CFCE010E94FE01F1CF71
:100490008B8DFE01E80FF11DE35AFF4FF0820B8FA9
:1004A000EA89FB898081806207C0EE89FF896083C9
:1004B000E889F98980818064808381E090E0DF9120
:1004C000CF911F910F91FF90EF900895CF93DF93FD
:1004D000EC01888D8823C9F0EA89FB89808185FD3C
:1004E00005C0A889B9898C9186FD0FC00FB607FC9D
:1004F000F5CF808185FFF2CFA889B9898C9185FFDE
:10050000EDCFCE010E94FE01E7CFDF91CF9108959C
:1005100080E090E0892B29F00E94F40181110C9475
:10052000000008953FB7F8948091D6019091D701CB
:10053000A091D801B091D90126B5A89B05C02F3F45
:1005400019F00196A11DB11D3FBFBA2FA92F982FF9
:100550008827820F911DA11DB11DBC01CD0142E074
:10056000660F771F881F991F4A95D1F7089585ED6B
:100570008093BC008091BC0084FDFCCF10922202CD
:1005800008954091AC01262F30E0240F311D213217
:100590003105DCF4209122022430C9F4FC0180E012
:1005A00090E0861758F43091AC012191DC01A657F8
:1005B000BE4FA30FB11D2C930196F3CF8091AC01D8
:1005C000680F6093AC0180E0089581E0089582E0B7
:1005D00008950895E091DB018091DA01E81730F485
:1005E000F0E0E452FE4F808190E008958FEF9FEF9E
:1005F00008959091DB018091DA01981750F4E92F6A
:10060000F0E0E452FE4F208130E09F5F9093DB01E9
:1006100002C02FEF3FEFC90108958091DA0190E009
:100620002091DB01821B91090895CF92DF92EF9216
:10063000FF920F931F93CF93DF937C01262F972F69
:100640008A0180912302882391F0C62FD72F6E0153
:10065000C40ED51ECC15DD0571F06991D701ED9161
:10066000FC910190F081E02DC7010995F3CF642F33
:10067000822F0E94C102C801DF91CF911F910F917B
:10068000FF90EF90DF90CF900895CF93DF931F926C
:10069000CDB7DEB76983209123022223D1F02091C8
:1006A0004602203240F021E030E0FC013383228317
:1006B00080E090E015C080912402E82FF0E0EB5D2F
:1006C000FD4F998190838F5F80932402809346022F
:1006D00005C061E0CE0101960E94C10281E090E078
:1006E0000F90DF91CF910895089580E090E00895F4
:1006F0006115710579F0FB0101900020E9F7319750
:10070000AF01461B570BDC01ED91FC910280F38198
:10071000E02D099480E090E008954F925F926F92EF
:100720007F92EF92FF920F931F93CF93DF93CDB7FA
:10073000DEB7A1970FB6F894DEBF0FBECDBF7C0128
:10074000FA01CB0119A2223008F42AE08E010F5DD4
:100750001F4F422E512C612C712CBF01A30192011D
:100760000E949E0CF901CA01015011096A3014F46B
:10077000605D01C0695CD8016C93232B242B252B71
:1007800061F7B801C7010E947803A1960FB6F894EB
:10079000DEBF0FBECDBFDF91CF911F910F91FF90B4
:1007A000EF907F906F905F904F9008951F920F92FF
:1007B0000FB60F9211242F933F934F935F936F9334
:1007C0007F938F939F93AF93BF93EF93FF9387E4B0
:1007D00092E00E94FE01FF91EF91BF91AF919F9136
:1007E0008F917F916F915F914F913F912F910F90DA
:1007F0000FBE0F901F9018951F920F920FB60F9279
:1008000011242F938F939F93EF93FF93E0915702BF
:10081000F09158028081E0915D02F0915E0282FDCC
:1008200012C09081809160028F5F8F73209161026E
:10083000821751F0E0916002F0E0E95BFD4F958F87
:100840008093600201C08081FF91EF919F918F9111
:100850002F910F900FBE0F901F90189590E0FC0104
:10086000EE57FF4F3491FC01E254FF4F2491FC01FD
:10087000E655FF4FE491EE2309F43BC0332339F1F1
:10088000333091F038F43130A9F0323001F584B5CD
:100890008F7D12C0373091F03830A1F03430B9F488
:1008A000809180008F7D03C0809180008F7780933E
:1008B00080000DC084B58F7784BD09C08091B000E1
:1008C0008F7703C08091B0008F7D8093B000F0E0FF
:1008D000EE0FFF1FEA56FF4FA591B4918FB7F89422
:1008E000EC91611103C020952E2301C02E2B2C9377
:1008F0008FBF0895CF93DF93EC0160E08E810E945B
:100900002E0461E08E810E942E0460E08E810E94A0
:100910002E048BE891E00197F1F7DF91CF910895D4
:100920008F929F92AF92BF92CF92DF92EF92FF92FF
:100930006B017C010E9492024B015C01C114D10445
:10094000E104F104F1F00E949202DC01CB0188196C
:100950009909AA09BB09883E9340A105B10570F326
:1009600021E0C21AD108E108F10888EE880E83E080
:10097000981EA11CB11CC114D104E104F10419F7A3
:10098000DDCFFF90EF90DF90CF90BF90AF909F9022
:100990008F9008951F920F920FB60F9211242F93EC
:1009A0003F938F939F93AF93BF938091D201909188
:1009B000D301A091D401B091D5013091D10123E0B0
:1009C000230F2D3720F40196A11DB11D05C026E887
:1009D000230F0296A11DB11D2093D1018093D20156
:1009E0009093D301A093D401B093D5018091D60107
:1009F0009091D701A091D801B091D9010196A11D84
:100A0000B11D8093D6019093D701A093D801B093E4
:100A1000D901BF91AF919F918F913F912F910F90ED
:100A20000FBE0F901F901895FC0161819081492F96
:100A300050E0228130E0E6E7F0E081E08E1B782F85
:100A40007E0F761728F47491270F311D3196F7CF5A
:100A5000633020F0937011F42F5F3F4F6DE671E02B
:100A6000469FC001479F900D569F900D11240596FB
:100A70004D5F5F4F5695479556954795840F951F47
:100A8000820F931F67E070E00E948A0C0895FC01BA
:100A9000908190539A3008F090E0818180532AE051
:100AA000929F800D112408951F920F920FB60F92FE
:100AB00011242F933F934F935F936F937F938F9363
:100AC0009F93AF93BF93EF93FF938091B900887F7B
:100AD000803609F49CC068F5883209F45BC090F454
:100AE000803109F454C038F4882309F4F6C0883002
:100AF00009F44DC0F6C0883109F44CC0803209F4C5
:100B00005DC0EFC0803409F468C048F4803309F454
:100B100055C0883309F0E5C080932002D8C08035E5
:100B200009F44FC0883509F45DC0883409F0D9C094
:100B3000D6C0883909F4C7C0A8F4883709F467C05B
:100B400038F4883609F463C0803709F460C0C9C03E
:100B5000883809F4B8C0803909F45FC0803809F0DA
:100B6000C0C05BC0803B09F486C038F4803A09F409
:100B700066C0883A09F47FC0B4C0803C09F4A7C0BD
:100B8000883C09F4A4C0883B09F48AC0AAC08091BB
:100B9000FD0110C090911F0280911E02981770F500
:100BA000E0911F0281E08E0F80931F02F0E0E2507F
:100BB000FE4F80818093BB0085EC86C0809320022D
:100BC0008EC0E0911F0281E08E0F80931F02809102
:100BD000BB00F0E0E250FE4F808390911F028091B5
:100BE0001E026EC0E0911F0281E08E0F80931F02F3
:100BF0008091BB00F0E0E250FE4F808380912102A3
:100C000081116DC081E08093FC0184EA61C083E0C2
:100C1000809322021092D001CFCF8091D0018032F8
:100C200008F051C0E091D00181E08E0F8093D00197
:100C30008091BB00F0E0E055FE4F8083BDCF85EC96
:100C40008093BC00109222028091D001803230F457
:100C5000E091D001F0E0E055FE4F10826091D001AC
:100C600070E0E091AE01F091AF0180EB91E0099569
:100C70001092D00136C084E0809322021092AD0120
:100C80001092AC01E091AA01F091AB01099580911D
:100C9000AC01811105C081E08093AC0110928A0102
:100CA000E091AD0181E08E0F8093AD01F0E0E65759
:100CB000FE4F80818093BB009091AD018091AC018B
:100CC000981708F479CF85E88093BC000AC085ECBA
:100CD0008093BC001092220204C0109220020E9455
:100CE000B702FF91EF91BF91AF919F918F917F914B
:100CF0006F915F914F913F912F910F900FBE0F9089
:100D00001F901895CF92DF92EF92FF920F931F934F
:100D1000CF93DF937C016C0187E0C80ED11CC0E04B
:100D2000D0E0062F10E0B8010C2E02C07595679533
:100D30000A94E2F76170F60181916F010E942E041E
:100D40002196C430D10579F7C701DF91CF911F916A
:100D50000F91FF90EF90DF90CF900C947A04CF9298
:100D6000DF92EF92FF920F931F93CF93DF93EC01EB
:100D7000F62E642F8C810E942E048D818F3F19F0F6
:100D800060E00E942E048F850F2D10E084FF25C0A7
:100D90006E0187E0C80ED11CE12CF12CB8010E2C9D
:100DA00002C0759567950A94E2F76170F60181912A
:100DB0006F010E942E04FFEFEF1AFF0A88E0E81689
:100DC000F10461F7CE01DF91CF911F910F91FF9058
:100DD000EF90DF90CF900C947A04B80184E0759581
:100DE00067958A95E1F7CE010E9482066F2DCE01AC
:100DF000DF91CF911F910F91FF90EF90DF90CF90F7
:100E00000C94820641E00E94AF0681E090E00895D4
:100E100040E00C94AF0690E0FC01E254FF4F2491B7
:100E2000FC01E655FF4F8491882399F090E0880FEC
:100E3000991FFC01E056FF4FA591B491FC01EA56C1
:100E4000FF4F859194918FB7F894EC91E22BEC933E
:100E50008FBF0895EF92FF920F931F93CF93DF936D
:100E6000EC01623018F08F8588608F876B8B1C8A4D
:100E700080E48D8B80E18E8B80E58F8B8C810E944E
:100E80000B078D818F3F11F00E940B078E810E940E
:100E90000B077E0187E0E80EF11C00E010E08F8573
:100EA00084FD03C084E090E002C088E090E0081771
:100EB000190744F4F70181917F010E940B070F5F2E
:100EC0001F4FEDCF8BE39DE00197F1F760E08C8140
:100ED0000E942E0460E08E810E942E048D818F3F3F
:100EE00019F060E00E942E046F8564FD1DC063E070
:100EF000CE010E9482060BE416E4C8010197F1F7C7
:100F000063E0CE010E948206C8010197F1F763E019
:100F1000CE010E94820683E592E00197F1F762E03C
:100F2000CE010E94820616C06062CE010E940807B0
:100F30008BE496E40197F1F76F856062CE010E9421
:100F4000080783E592E00197F1F76F856062CE01B3
:100F50000E9408076F856062CE010E94080784E046
:100F6000888B6CE0CE010E94080761E0CE010E94F0
:100F700008078BE39FE10197F1F782E0898B66E038
:100F8000CE01DF91CF911F910F91FF90EF900C94C4
:100F90000807382F2091460290914502213208F02F
:100FA00049C0809122028111FCCF42E0409322028D
:100FB000309321023FEF3093200210921F022093C2
:100FC0001E02A5E2B2E04EEF51E0FA013E2F341BC3
:100FD000321718F43D913193F9CF1092FD01209111
:100FE000FD01990F922B9093FD019091FC0191309E
:100FF00061F41092FC019091FD019093BB009091DF
:10100000BC0093FDF8CF95EC01C095EE9093BC0029
:10101000909122029230E1F3909120029F3F79F06B
:1010200080912002803241F080912002803331F0A3
:1010300084E005C081E003C082E001C083E010923B
:10104000240210924602109223020895682F84EE23
:1010500092E00C944503909122029111FCCF8132D1
:1010600008F080E291E090932202909321022FEF0A
:101070002093200210921F02280F20931E029093AB
:10108000FD019091FD01906D9093FD019091FC0107
:10109000913061F41092FC019091FD019093BB009E
:1010A0009091BC0093FDF8CF95EC01C095EE909324
:1010B000BC00909122029130E1F390911F029817A9
:1010C00010F480911F02AEEFB1E02CED31E0F90198
:1010D0009E2F921B981718F49D919193F9CF10921F
:1010E000DB018093DA010895FC0144815581608120
:1010F000718180EF92E00C948C01BC0180EF92E052
:101100000C947803643008F063E09091030369174E
:1011100010F06FEF690FE62FF0E0E051FD4F94897A
:10112000682F690F606880EF92E00C940807CF93F6
:10113000DF93CDB7DEB762970FB6F894DEBF0FBE70
:10114000CDBF789484B5826084BD84B5816084BD50
:1011500085B5826085BD85B5816085BD80916E0055
:10116000816080936E001092810080918100826086
:1011700080938100809181008160809381008091C3
:1011800080008160809380008091B10084608093B2
:10119000B1008091B00081608093B00080917A00AE
:1011A000846080937A0080917A00826080937A00D4
:1011B00080917A00816080937A0080917A008068C3
:1011C00080937A001092C10062E080EF92E00E946A
:1011D0002A0761E080EF92E00E9408078BE39FE11D
:1011E0000197F1F76AE070E080E090E00E949004DF
:1011F0001092DB011092DA01109224021092460242
:101200001092220201E0009321021092FC0161E0A1
:1012100082E10E942E0461E083E10E942E0480910D
:10122000B9008E7F8093B9008091B9008D7F809343
:10123000B90088E48093B80085E48093BC000093F3
:101240002302F8E6BF2EB0924502109224021092BB
:10125000460280E090E00E94260881E00E94C907D3
:1012600081E090E00E942B0884EE92E00E94F90257
:1012700087FF88C066E371E087E492E00E9478030C
:101280006AE471E087E492E00E94780386E591E0E9
:101290000E944705182F81E591E00E944705F82E2E
:1012A00089E591E00E944705E82E8CE591E00E94D7
:1012B0004705D82E8FE591E00E944705C82E009380
:1012C0002302B0924502109224021092460280E05E
:1012D00090E00E9426080AE08C2D602F0E947E0C70
:1012E000482F880F480F440F642F6C0D84EE92E056
:1012F0000E9445038D2D602F0E947E0C382F880F91
:10130000380F330F632F6D0D84EE92E00E9445037A
:101310008E2D602F0E947E0C282F880F280F220F01
:10132000622F6E0D84EE92E00E94450360E084EE31
:1013300092E00E9445038F2D602F0E947E0C982F13
:10134000880F980F990F692F6F0D84EE92E00E941D
:10135000450360E184EE92E00E944503812F602FF7
:101360000E947E0C682F660F680F660F610F84EE77
:1013700092E00E94450380E090E00E94260881E010
:101380000E94C907E0915702F091580282E08083E1
:10139000E0915302F09154021082E0915502F091D5
:1013A00056028FEC808310925F02E0915B02F09115
:1013B0005C0286E08083E0915902F0915A028081BC
:1013C00080618083E0915902F0915A0280818860A7
:1013D0008083E0915902F0915A0280818068808375
:1013E000E0915902F0915A0280818F7D808388E0DC
:1013F0000E940B0761E088E00E942E0401E0E8E60D
:10140000FE2E1AEF00932302F0924502109224025E
:101410001092460280E090E00E94260881E00E943F
:10142000C90787E090E00E942B0884EE92E00E94BA
:10143000F9028F77982F92959F70E82E919FE00C7C
:10144000112484EE92E00E94F9029C01332794E07B
:10145000359527959A95E1F7D82E129FD00C112437
:1014600084EE92E00E94F9029C01332744E0359516
:1014700027954A95E1F7C82E129FC00C112484EEDF
:1014800092E00E94F90284EE92E00E94F9029C012F
:10149000332754E0359527955A95E1F7B82E129FDA
:1014A000B00C112484EE92E00E94F9029C013327D3
:1014B00064E0359527956A95E1F7A82E129FA00C58
:1014C000112484EE92E00E94F9029C01332774E01B
:1014D000359527957A95E1F7129F800D11248D8718
:1014E000AE86BF86C88AD98AEA8ACE010D960E9446
:1014F0001405482F50E060E070E02AE087E492E0B5
:101500000E948D036AE471E087E492E00E94780310
:1015100060E080E00E9482086F856A30E8F44AE06B
:10152000CE0107960E94060162E671E0CE010196A7
:101530000E945101BE01695F7F4FCE0101960E945A
:10154000CF000E947408CE0101960E940101CE01D5
:1015500007960E94010109C0462F50E060E070E04C
:101560002AE080EF92E00E948D0384E691E00E94E1
:101570007D086E856A30E8F44AE0CE0107960E9445
:10158000060162E671E0CE0101960E945101BE01A2
:10159000695F7F4FCE0101960E94CF000E947408C0
:1015A000CE0101960E940101CE0107960E94010121
:1015B00009C0462F50E060E070E02AE080EF92E042
:1015C0000E948D0384E691E00E947D084D8550E0E5
:1015D0004053584F052E000C660B770B2AE080EF26
:1015E00092E00E948D0360E08CE00E94820886E613
:1015F00091E00E947D0860E08BE00E9482088BE60B
:1016000091E00E947D08CE010D960E94140590E0A5
:10161000FC013197E730F105D0F4EC5CFF4F0C94FE
:10162000C00C8DE691E011C081E791E00EC085E726
:1016300091E00BC088E791E008C08CE791E005C01D
:101640008FE791E002C083E891E00E947D0886E880
:1016500091E00E947D0861E080E00E948208688934
:101660006A30E8F44AE0CE0107960E94060162E67D
:1016700071E0CE0101960E945101BE01695F7F4F6A
:10168000CE0101960E94CF000E947408CE010196FF
:101690000E940101CE0107960E94010109C0462F58
:1016A00050E060E070E02AE080EF92E00E948D035D
:1016B00088E891E00E947D0869896A30E8F44AE090
:1016C000CE0107960E94060162E671E0CE01019606
:1016D0000E945101BE01695F7F4FCE0101960E94B9
:1016E000CF000E947408CE0101960E940101CE0134
:1016F00007960E94010109C0462F50E060E070E0AB
:101700002AE080EF92E00E948D0388E891E00E9439
:101710007D086A896A30E8F44AE0CE0107960E94A3
:10172000060162E671E0CE0101960E945101BE0100
:10173000695F7F4FCE0101960E94CF000E9474081E
:10174000CE0101960E940101CE0107960E9401017F
:1017500009C0462F50E060E070E02AE080EF92E0A0
:101760000E948D0368EE73E080E090E00E94900498
:101770000E94880247CEE7E4F2E01382128288EEEC
:1017800093E0A0E0B0E084839583A683B7832AE04A
:1017900031E03183208325EC30E03587248724EC49
:1017A00030E03787268720EC30E0318B208B21EC2E
:1017B00030E0338B228B22EC30E0358B248B26EC0F
:1017C00030E0378B268B118E128E138E148EE4EE42
:1017D000F2E01382128284839583A683B7838CE11F
:1017E00091E091838083E0EFF2E0138212828EE237
:1017F00091E09183808386E084838FEF858387E007
:10180000868382E0878383E0808784E0818785E028
:1018100082871386148615861686178661E0CF01A7
:101820000C942A074532510520F4423010F00C94F4
:101830001D0CFB011082CB010895BB27FB0155272E
:10184000AA27880F991FAA1FA41710F0A41B83951D
:101850005051B9F7A05DAA3308F0A95DA193009794
:1018600079F7B111B1931192CB010C94370CDC01D3
:10187000FC01672F71917723E1F7329704C07C91C7
:101880006D9370836291AE17BF07C8F308952F92CE
:101890003F924F925F926F927F928F929F92AF9200
:1018A000BF92CF92DF92EF92FF920F931F93CF934D
:1018B000DF93CDB7DEB7CA1BDB0B0FB6F894DEBFE4
:1018C0000FBECDBF09942A88398848885F846E840A
:1018D0007D848C849B84AA84B984C884DF80EE8054
:1018E000FD800C811B81AA81B981CE0FD11D0FB65D
:1018F000F894DEBF0FBECDBFED010895991B79E0CE
:1019000004C0991F961708F0961B881F7A95C9F78F
:1019100080950895AA1BBB1B51E107C0AA1FBB1FDE
:10192000A617B70710F0A61BB70B881F991F5A956B
:10193000A9F780959095BC01CD010895A1E21A2EDA
:10194000AA1BBB1BFD010DC0AA1FBB1FEE1FFF1F63
:10195000A217B307E407F50720F0A21BB30BE40BB3
:10196000F50B661F771F881F991F1A9469F76095FA
:101970007095809590959B01AC01BD01CF010895B4
:10198000EE0FFF1F0590F491E02D0994CF93DF93A4
:101990008230910510F482E090E0E0910A03F0912A
:1019A0000B0320E030E0C0E0D0E0309711F140813F
:1019B000518148175907C0F04817590761F48281CF
:1019C0009381209719F09B838A832BC090930B03FC
:1019D00080930A0326C02115310519F042175307D9
:1019E00018F49A01BE01DF01EF010280F381E02DBE
:1019F000DCCF2115310509F1281B390B24303105C5
:101A000090F412968D919C9113976115710521F0B8
:101A1000FB019383828304C090930B0380930A039A
:101A2000FD01329644C0FD01E20FF31F81939193B3
:101A3000225031092D933C933AC0209108033091F4
:101A40000903232B41F420910201309103013093CB
:101A50000903209308032091000130910101211511
:101A6000310541F42DB73EB7409104015091050175
:101A7000241B350BE0910803F0910903E217F307EB
:101A8000A0F42E1B3F0B2817390778F0AC014E5FEE
:101A90005F4F2417350748F04E0F5F1F509309031F
:101AA000409308038193919302C0E0E0F0E0CF01FE
:101AB000DF91CF9108950F931F93CF93DF930097FA
:101AC00009F48CC0FC0132971382128200910A0340
:101AD00010910B030115110581F420813181820FD2
:101AE000931F20910803309109032817390779F5CE
:101AF000F0930903E093080371C0D80140E050E07F
:101B0000AE17BF0750F412962D913C911397AD017B
:101B10002115310509F1D901F3CF9D01DA01338394
:101B2000228360817181860F971F8217930769F462
:101B3000EC0128813981260F371F2E5F3F4F3183FB
:101B400020838A819B8193838283452B29F4F093A0
:101B50000B03E0930A0342C01396FC93EE93129793
:101B6000ED01499159919E01240F351FE217F307AA
:101B700071F480819181840F951F029611969C9338
:101B80008E938281938113969C938E931297E0E0BB
:101B9000F0E0D80112968D919C911397009719F05F
:101BA000F8018C01F6CF8D919C9198012E5F3F4FEB
:101BB000820F931F209108033091090328173907DA
:101BC00069F4309729F410920B0310920A0302C0B3
:101BD000138212821093090300930803DF91CF91BF
:101BE0001F910F910895A0E0B0E0E9EFFDE00C94A3
:101BF0004B0CEC01009721F4CB010E94C60CB8C03D
:101C0000FC01E60FF71F9C0122503109E217F30790
:101C100008F4ACC0D9010D911C9111970617170754
:101C2000B0F00530110508F49FC0C801049786176D
:101C3000970708F499C002501109061B170B01936E
:101C400011936D937C93CF010E945B0D8DC05B015E
:101C5000A01AB10A4C01800E911EA0910A03B09106
:101C60000B0340E050E0E12CF12C109709F44AC03E
:101C7000A815B905D1F56D907C901197630182E0AC
:101C8000C80ED11CCA14DB0480F1A3014A195B09F8
:101C90006A0182E0C80ED11C1296BC90129713966E
:101CA000AC91B5E0CB16D10440F0B282A38351834E
:101CB0004083D9016D937C930AC00E5F1F4FC3010F
:101CC000800F911FF90191838083EB2DFA2FE1148E
:101CD000F10431F0D7011396FC93EE93129744C0B0
:101CE000F0930B03E0930A033FC08D919C911197F1
:101CF0004817590708F4AC017D0112960D90BC916C
:101D0000A02DB3CF80910803909109038815990500
:101D1000E1F446175707C8F4809100019091010142
:101D2000009741F48DB79EB7409104015091050191
:101D3000841B950BE817F907C8F4F0930903E093A7
:101D40000803F901718360830FC0CB010E94C60CA8
:101D50007C01009759F0A801BE010E94C20ECE017D
:101D60000E945B0DC70104C0CE0102C080E090E07C
:101D7000CDB7DEB7EEE00C94670C81E090E0F8940C
:101D80000C94D20EFB01DC0102C001900D92415077
:101D90005040D8F70895FB01DC0101900D9200201E
:081DA000E1F70895F894FFCF6C
:101DA80000000C038000000000001F028C01B70136
:101DB8006602E801C601DA010000000045031503C8
:101DC8007503E9020D03F902EA02000000000207A8
:101DD8008C0175037403525443206973204E4F5489
:101DE8002072756E6E696E6721000D0A004F63746C
:101DF80020323120323031380031313A31363A33FD
:101E0800380030002E0020202020002800706F6E3F
:101E18000077746F00737200637A770070740073D0
:0A1E28006F62006E640029003A00AA
:107E0000112484B714BE81FFF0D085E080938100F7
:107E100082E08093C00088E18093C10086E0809377
:107E2000C20080E18093C4008EE0C9D0259A86E02C
:107E300020E33CEF91E0309385002093840096BBD3
:107E4000B09BFECF1D9AA8958150A9F7CC24DD24C4
:107E500088248394B5E0AB2EA1E19A2EF3E0BF2EE7
:107E6000A2D0813461F49FD0082FAFD0023811F036
:107E7000013811F484E001C083E08DD089C08234E0
:107E800011F484E103C0853419F485E0A6D080C0E4
:107E9000853579F488D0E82EFF2485D0082F10E0AE
:107EA000102F00270E291F29000F111F8ED06801E7
:107EB0006FC0863521F484E090D080E0DECF843638
:107EC00009F040C070D06FD0082F6DD080E0C81688
:107ED00080E7D80618F4F601B7BEE895C0E0D1E017
:107EE00062D089930C17E1F7F0E0CF16F0E7DF06D8
:107EF00018F0F601B7BEE89568D007B600FCFDCFD4
:107F0000A601A0E0B1E02C9130E011968C91119780
:107F100090E0982F8827822B932B1296FA010C0160
:107F200087BEE89511244E5F5F4FF1E0A038BF0790
:107F300051F7F601A7BEE89507B600FCFDCF97BE46
:107F4000E89526C08437B1F42ED02DD0F82E2BD052
:107F50003CD0F601EF2C8F010F5F1F4F84911BD097
:107F6000EA94F801C1F70894C11CD11CFA94CF0C13
:107F7000D11C0EC0853739F428D08EE10CD085E9AC
:107F80000AD08FE07ACF813511F488E018D01DD067
:107F900080E101D065CF982F8091C00085FFFCCF94
:107FA0009093C60008958091C00087FFFCCF809118
:107FB000C00084FD01C0A8958091C6000895E0E648
:107FC000F0E098E1908380830895EDDF803219F02E
:107FD00088E0F5DFFFCF84E1DECF1F93182FE3DFCA
:107FE0001150E9F7F2DF1F91089580E0E8DFEE27F6
:047FF000FF270994CA
:027FFE00040479
:0400000300007E007B
:00000001FF
